S0120000496E74657272757074732E73726563D2
S11300000C9434000C9440000C943E000C943E007C
S11300100C943E000C943E000C943E000C943E0064
S11300200C943E000C943E000C943E000C943E0054
S11300300C943E000C943E000C943E000C943E0044
S11300400C943E000C943E000C943E000C943E0034
S11300500C943E000C943E000C943E000C943E0024
S11300600C943E000C943E0011241FBECFEFD8E048
S1130070DEBFCDBF0E9457000C946A000C940000B0
S11300801F920F920FB60F9211244A9B02C02F9A0F
S113009001C02F980F900FBE0F901F901895E89AEB
S11300A0E9E6F0E0808181608083789408958FEFA1
S11300B084B95A9A0E944F0090E42FEF30E782E00F
S11300C0215030408040E1F700C0000085B189270D
S10B00D085B9F3CFF894FFCFCA
S9030000FC
