S00D0000736572766F2E73726563E8
S11300000C9434000C943E000C943E000C943E007E
S11300100C943E000C943E000C943E000C943E0064
S11300200C943E000C943E000C943E000C943E0054
S11300300C943E000C943E000C943E000C943E0044
S11300400C943E000C943E000C943E000C943E0034
S11300500C943E000C943E000C943E000C943E0024
S11300600C943E000C943E0011241FBECFEFD8E048
S1130070DEBFCDBF0E9469000C9484050C9400007F
S113008082E88093800089E18093810080E29EE48D
S1130090909387008093860008951092C5008CE0A9
S11300A08093C40088E18093C10086E08093C200FD
S11300B00895E0ECF0E0908195FFFDCF8093C600B9
S11300C00895E0ECF0E080818823ECF78091C6008D
S11300D00895CF93DF93CDB7DEB72A970FB6F89480
S11300E0DEBF0FBECDBF0E9440000E944D008FEFC7
S11300F084B90F2EFCEDAF2EF5E0BF2EF02D0CEDE4
S113010015E00F2EFCED2F2EF5E03F2EF02D0F2ED7
S1130110F8EE4F2EFDEF5F2EF02D0F2EF8EA6F2E26
S1130120F1E67F2EF02D84E62816310464F0E5EC28
S11301302E16E9E03E0664F00F2EF4EC2F2EF9E0C3
S11301403F2EF02D05C00F2EF4E62F2E312CF02D6E
S1130150043611053CF0053CF9E01F072CF004ECD3
S113016019E002C004E610E00E94610088B998B169
S11301709136A1F050F4933509F4BAC1973509F4D6
S113018077C0903209F0F4C257C0933709F441C0E4
S1130190973761F1943609F0EBC214C0EAE8F0E055
S11301A0518240820E945900F2E0F4B9E4E8F0E0A0
S11301B011821082E8E8F0E031822082FAE02F0E0A
S11301C0311CB1CFEAE8F0E0518240820E9459002C
S11301D0F2E0F4B9E4E8F0E011821082E8E8F0E03B
S11301E031822082FAE02F1A31089DCFE8E8F0E04E
S11301F0518240820E945900F4E0F4B9E4E8F0E04E
S113020011821082EAE8F0E011830083065F1F4F39
S11302108ACFE8E8F0E0518240820E945900F4E07D
S1130220F4B9E4E8F0E011821082EAE8F0E0118326
S113023000830A50110977CF2B9A87E791E0019741
S1130240F1F72B9883EF96E10197F1F780E197E2BC
S1130250E9E1F0E03197F1F70197D1F72B9A86EABB
S11302608A95F1F72B9888E893E10197F1F75BCF32
S11302702C9AB5010B2C000C880B990B0E9462047C
S11302806B017C012BEA3AEA4AEA5EE30E94170515
S113029069837A838B839C8320E030E040E85FE3CA
S11302A00E94BA0388230CF47BC020E030E040E8CD
S11302B05EE3C701B6010E9417056D837E838F83B9
S11302C0988720E03FEF4FE757E40E941205181685
S11302D00CF048C020E030E04AE754E4C701B6011E
S11302E00E94BF0369837A838B839C8320E030E080
S11302F04AE753E40E9417056B017C0120E030E0DB
S113030040E85FE30E94BA03882334F120E03FEF22
S11303104FE757E4C701B6010E9412051816BCF452
S113032020E030E040E251E469817A818B819C8154
S11303300E9417050E9431046115710599F189E144
S113034090E00197F1F761507109C9F72BC0C7011B
S1130350B6010E94310402C061E070E0CB01019754
S1130360F1F720C020E030E04FE753E469817A815F
S11303708B819C810E941205181654F46D817E8134
S11303808F8198850E943104CB010197F1F70DC04C
S113039069817A818B819C810E943104862E02C0FE
S11303A088248394882D8A95F1F72C98B3016A19CF
S11303B07B09072E000C880B990B0E9462046B01C9
S11303C07C012BEA3AEA4AEA5EE30E941705698354
S11303D07A838B839C8320E030E040E85FE30E94D3
S11303E0BA0388230CF47BC020E030E040E85EE3ED
S11303F0C701B6010E9417056D837E838F8398879A
S113040020E03FEF4FE757E40E94120518160CF066
S113041048C020E030E04AE754E4C701B6010E9436
S1130420BF0369837A838B839C8320E030E04AE7AF
S113043053E40E9417056B017C0120E030E040E8A2
S11304405FE30E94BA03882334F120E03FEF4FE7D3
S113045057E4C701B6010E9412051816BCF420E047
S113046030E040E251E469817A818B819C810E9471
S113047017050E9431046115710599F189E190E035
S11304800197F1F761507109C9F72BC0C701B60193
S11304900E94310402C061E070E0CB010197F1F7E2
S11304A020C020E030E04FE753E469817A818B81FA
S11304B09C810E941205181654F46D817E818F81EF
S11304C098850E943104CB010197F1F70DC0698131
S11304D07A818B819C810E943104962E02C09924DA
S11304E09394892D8A95F1F7FAE0AF0EB11C1BCED7
S11304F02C9AB5010B2C000C880B990B0E946204FA
S11305006B017C012BEA3AEA4AEA5EE30E94170592
S113051069837A838B839C8320E030E040E85FE347
S11305200E94BA0388230CF47BC020E030E040E84A
S11305305EE3C701B6010E9417056D837E838F8336
S1130540988720E03FEF4FE757E40E941205181602
S11305500CF048C020E030E04AE754E4C701B6019B
S11305600E94BF0369837A838B839C8320E030E0FD
S11305704AE753E40E9417056B017C0120E030E058
S113058040E85FE30E94BA03882334F120E03FEFA0
S11305904FE757E4C701B6010E9412051816BCF4D0
S11305A020E030E040E251E469817A818B819C81D2
S11305B00E9417050E9431046115710599F189E1C2
S11305C090E00197F1F761507109C9F72BC0C70199
S11305D0B6010E94310402C061E070E0CB010197D2
S11305E0F1F720C020E030E04FE753E469817A81DD
S11305F08B819C810E941205181654F46D817E81B2
S11306008F8198850E943104CB010197F1F70DC0C9
S113061069817A818B819C810E9431046A8702C03E
S113062081E08A878A858A95F1F72C98B3016A1943
S11306307B09072E000C880B990B0E9462046B0146
S11306407C012BEA3AEA4AEA5EE30E9417056983D1
S11306507A838B839C8320E030E040E85FE30E9450
S1130660BA0388230CF47BC020E030E040E85EE36A
S1130670C701B6010E9417056D837E838F83988717
S113068020E03FEF4FE757E40E94120518160CF0E4
S113069048C020E030E04AE754E4C701B6010E94B4
S11306A0BF0369837A838B839C8320E030E04AE72D
S11306B053E40E9417056B017C0120E030E040E820
S11306C05FE30E94BA03882334F120E03FEF4FE751
S11306D057E4C701B6010E9412051816BCF420E0C5
S11306E030E040E251E469817A818B819C810E94EF
S11306F017050E9431046115710599F189E190E0B3
S11307000197F1F761507109C9F72BC0C701B60110
S11307100E94310402C061E070E0CB010197F1F75F
S113072020C020E030E04FE753E469817A818B8177
S11307309C810E941205181654F46D817E818F816C
S113074098850E943104CB010197F1F70DC06981AE
S11307507A818B819C810E943104698702C0E1E027
S1130760E98789858A95F1F7FAE0AF1AB108DBCCFD
S113077014B8D9CC0E949D0408F481E008950E9425
S1130780D3030C94D8040E94D10458F00E94CA04E4
S113079040F029F45F3F29F00C94C10451110C94EA
S11307A00C050C94C7040E94E90468F39923B1F37F
S11307B0552391F3951B550BBB27AA276217730783
S11307C0840738F09F5F5F4F220F331F441FAA1F17
S11307D0A9F335D00E2E3AF0E0E832D091505040D3
S11307E0E695001CCAF72BD0FE2F29D0660F771F81
S11307F0881FBB1F261737074807AB07B0E809F067
S1130800BB0B802DBF01FF2793585F4F3AF09E3FEB
S1130810510578F00C94C1040C940C055F3FE4F38B
S1130820983ED4F3869577956795B795F7959F5F2E
S1130830C9F7880F911D9695879597F90895E1E07A
S1130840660F771F881FBB1F621773078407BA07D9
S113085020F0621B730B840BBA0BEE1F88F7E09534
S113086008950E94F10488F09F5798F0B92F9927B2
S1130870B751B0F0E1F0660F771F881F991F1AF087
S1130880BA95C9F714C0B13091F00E940B05B1E0DC
S113089008950C940B05672F782F8827B85F39F0DB
S11308A0B93FCCF3869577956795B395D9F73EF420
S11308B090958095709561957F4F8F4F9F4F0895C8
S11308C0E89409C097FB3EF49095809570956195E6
S11308D07F4F8F4F9F4F9923A9F0F92F96E9BB279C
S11308E09395F695879577956795B795F111F8CF18
S11308F0FAF4BB0F11F460FF1BC06F5F7F4F8F4F83
S11309009F4F16C0882311F096E911C0772321F078
S11309109EE8872F762F05C0662371F096E8862F10
S113092070E060E02AF09A95660F771F881FDAF767
S1130930880F9695879597F90895990F0008550F94
S1130940AA0BE0E8FEEF16161706E807F907C0F051
S113095012161306E407F50798F0621B730B840B59
S1130960950B39F40A2661F0232B242B252B21F433
S113097008950A2609F4A140A6958FEF811D811DD3
S1130980089597F99F6780E870E060E008959FEF0D
S113099080EC089500240A94161617061806090612
S11309A0089500240A9412161306140605060895E1
S11309B0092E0394000C11F4882352F0BB0F40F469
S11309C0BF2B11F460FF04C06F5F7F4F8F4F9F4FA9
S11309D0089557FD9058440F551F59F05F3F71F02B
S11309E04795880F97FB991F61F09F3F79F0879592
S11309F00895121613061406551FF2CF4695F1DF1B
S1130A0008C0161617061806991FF1CF86957105AA
S1130A10610508940895E894BB2766277727CB01DE
S1130A2097F908950E949D0408F48FEF08950E9499
S1130A302A050C94D8040E94CA0438F00E94D104F8
S1130A4020F0952311F00C94C1040C94C7041124D4
S1130A500C940C050E94E90470F3959FC1F3950F63
S1130A6050E0551F629FF001729FBB27F00DB11D2E
S1130A70639FAA27F00DB11DAA1F649F6627B00DBE
S1130A80A11D661F829F2227B00DA11D621F739FA7
S1130A90B00DA11D621F839FA00D611D221F749FB5
S1130AA03327A00D611D231F849F600D211D822FFC
S1130AB0762F6A2F11249F5750409AF0F1F0882323
S1130AC04AF0EE0FFF1FBB1F661F771F881F915050
S1130AD05040A9F79E3F510580F00C94C1040C943A
S1130AE00C055F3FE4F3983ED4F3869577956795BC
S1130AF0B795F795E7959F5FC1F7FE2B880F911D7A
S10F0B009695879597F90895F894FFCF17
S9030000FC
