:100000000C9434000C943E000C943E000C943E0082
:100010000C943E000C943E000C943E000C943E0068
:100020000C943E000C943E000C943E000C943E0058
:100030000C943E000C943E000C943E000C943E0048
:100040000C943E000C943E000C943E000C943E0038
:100050000C943E000C943E000C943E000C943E0028
:100060000C943E000C943E0011241FBECFEFD8E04C
:10007000DEBFCDBF0E9440000C940E010C94000026
:100080008FEF8AB917B888B981E090E0359B63C0DB
:1000900021E030E06BB1AC01022E02C0440F551FCD
:1000A0000A94E2F7462B4BB9EFE1FEE43197F1F702
:1000B00000C000002E5F3F4F2930310559F721E085
:1000C00030E05BB1BC01022E02C0660F771F0A94BC
:1000D000E2F7462F409545234BB9EFE1FEE4319717
:1000E000F1F700C000002E5F3F4F2930310549F77E
:1000F00027E030E06BB1AC01022E02C0440F551F67
:100100000A94E2F7462B4BB9EFE1FEE43197F1F7A1
:1001100000C00000225031092F3FFFEF3F0751F789
:1001200027E030E05BB1BC01022E02C0660F771FF2
:100130000A94E2F7462F409545234BB9EFE1FEE4E0
:100140003197F1F700C00000225031092F3FFFEF37
:100150003F0741F79BCF20E030E06BB1AC01022EAE
:1001600002C0440F551F0A94E2F7462B4BB9EFE14A
:10017000FEE43197F1F700C000002E5F3F4F2830BA
:10018000310559F720E030E05BB1BC01022E02C01E
:10019000660F771F0A94E2F7462F409545234BB927
:1001A000EFE1FEE43197F1F700C000002E5F3F4F12
:1001B0002830310549F726E030E06BB1AC01022E62
:1001C00002C0440F551F0A94E2F7462B4BB9EFE1EA
:1001D000FEE43197F1F700C00000225031092E3FB4
:1001E000FFEF3F0751F726E030E05BB1BC01022E84
:1001F00002C0660F771F0A94E2F7462F4095452309
:100200004BB9EFE1FEE43197F1F700C00000225056
:1002100031092E3FFFEF3F0741F738CFF894FFCF6A
:00000001FF
