S0140000436F6E74726F6C204C6564732E7372656387
S11300000C9434000C943E000C943E000C943E007E
S11300100C9448000C943E000C943E000C943E005A
S11300200C943E000C943E000C943E000C943E0054
S11300300C943E000C943E000C943E000C943E0044
S11300400C943E000C943E000C943E000C943E0034
S11300500C943E000C943E000C943E000C943E0024
S11300600C943E000C943E0011241FBECFEFD8E048
S1130070DEBFCDBF0E94B9000C94E8000C940000D0
S1130080E0ECF0E0908195FFFDCF8093C6000895E9
S11300901F920F920FB60F9211242F933F934F93F9
S11300A05F936F937F938F939F93AF93BF93EF93DC
S11300B0FF9388B1873771F487E790E00E9440008E
S11300C083E085B983EC99E00197F1F700C0000063
S11300D018B838C088B1833771F483E790E00E9480
S11300E0400080EC85B983EC99E00197F1F700C0FA
S11300F0000018B827C088B1843671F484E690E013
S11301000E9440008CE085B983EC99E00197F1F7F7
S113011000C0000018B816C088B1813671F481E6B9
S113012090E00E94400080E385B983EC99E0019758
S1130130F1F700C0000018B805C08EE690E00E94F8
S1130140400018B883ED90E30197F1F700C0000078
S1130150FF91EF91BF91AF919F918F917F916F919B
S11301605F914F913F912F910F900FBE0F901F9071
S113017018958FEF84B915B892E090936800809336
S11301806C0078941092C5008CE08093C40088E1E0
S11301908093C10086E08093C200C0ECD0E00F2EB3
S11301A0F6ECEF2EF12CF02D2FE986E891E02150AA
S11301B080409040E1F700C0000015B88881882392
S11301C0ECF7F7011081812F0E94400018B9ECCFA1
S10701D0F894FFCFCD
S9030000FC
