S014000054696D6572436F756E7465722E737265632F
S11300000C9434000C9449000C9449000C9449005D
S11300100C9449000C9449000C9449000C94490038
S11300200C9449000C9449000C9449000C94490028
S11300300C9449000C9449000C9449000C94490018
S11300400C9449000C9449000C9449000C94490008
S11300500C9449000C9449000C9449000C944900F8
S11300600C9449000C94490011241FBECFEFD8E032
S1130070DEBFCDBF11E0A0E0B1E0E0E9F1E002C0F5
S113008005900D92A835B107D9F70E947E000C9413
S1130090C6000C9400001092C5008DE08093C4004B
S11300A088E18093C10086E08093C2000895E0EC6B
S11300B0F0E0908195FFFDCF8093C6000895E0ECB9
S11300C0F0E080818823ECF78091C60008950F93B7
S11300D01F93CF93FC018081882361F08F01C0E0DE
S11300E090E00E945700CF5FF801EC0FF11D808172
S11300F08111F6CFCF911F910F9108950E944B006B
S113010083E0809381008FEF84B917B880E288B9C7
S113011080E091E00E94670086E491E00E9467001D
S1130120FF24F39404E810E0289884E191E00E940D
S113013067000E945F008BE291E00E9467002FE35A
S11301408DE093E0215080409040E1F700C0000032
S1130150F5B8359909C08AE391E00E94670084E408
S113016091E00E9467000EC0F80111821082359957
S1130170FECFF801C081D181D295C295CF70CD2731
S1130180DF70CD27CE010E945700CECFF894FFCF69
S11301900D0A5265616374696F6E2054696D6572EE
S11301A03A0D0A004C6574277320646F206974202B
S11301B067757963682E2E2E0D0A004765742072C8
S11301C0656164792E2E2E0D0A004368656174659D
S11301D0720D0A002D2D2D2D2D2D2D2D2D2D2D2D76
S10B01E02D2D2D2D2D0D0A001B
S9030000FC
