S00C0000554152542E73726563DC
S11300000C9434000C943E000C943E000C943E007E
S11300100C943E000C943E000C943E000C943E0064
S11300200C943E000C943E000C943E000C943E0054
S11300300C943E000C943E000C943E000C943E0044
S11300400C943E000C943E000C943E000C943E0034
S11300500C943E000C943E000C943E000C943E0024
S11300600C943E000C943E0011241FBECFEFD8E048
S1130070DEBFCDBF0E945C000C9467000C940000AE
S11300801092C5008CE08093C40088E18093C10085
S113009086E08093C2000895E0ECF0E0908195FF43
S11300A0FDCF8093C6000895E0ECF0E080818823C2
S11300B0ECF78091C60008958FEF84B90E94400048
S11300C00E945400C82F0E944C00C5B9F9CFF8947F
S10500D0FFCF5C
S9030000FC
