S01100004144435F547269616C2E73726563F0
S11300000C9434000C943E000C943E000C943E007E
S11300100C943E000C943E000C943E000C943E0064
S11300200C943E000C943E000C943E000C943E0054
S11300300C943E000C943E000C943E000C943E0044
S11300400C943E000C943E000C943E000C943E0034
S11300500C943E000C943E000C943E000C943E0024
S11300600C943E000C943E0011241FBECFEFD8E048
S1130070DEBFCDBF0E9440000C9481000C940000B0
S1130080ECE7F0E0808180648083EAE7F0E080813F
S1130090836080838081806880838FEF84B9A8E740
S11300A0B0E061E070E0808180648083808186FDBF
S11300B0FDCF8D919C911197880F892F881F990BE3
S11300C09195482F15B880E095B19B01082E02C088
S11300D0220F331F0A94E2F7292B25B9CFE1DEE47E
S11300E02197F1F700C000008F5F481768F7DFE73A
S11300F028E381E0D15020408040E1F700C00000B7
S1090100D2CFF894FFCFFA
S9030000FC
