S00B00004C45442E7372656344
S11300000C9434000C9446000C9446000C94460066
S11300100C9446000C9446000C9446000C94460044
S11300200C9446000C9446000C9446000C94460034
S11300300C9446000C9446000C9446000C94460024
S11300400C9446000C9446000C9446000C94460014
S11300500C9446000C9446000C9446000C94460004
S11300600C9446000C94460011241FBECFEFD8E038
S1130070DEBFCDBF21E0A0E0B1E001C01D92A230FF
S1130080B207E1F70E9448000C9489000C94000028
S11300908FEF87B921E030E016C0A90102C0440FF8
S11300A0551F8A95E2F748B98091000190910101AA
S11300B00196909301018093000187EA91E60197EC
S11300C0F1F700C00000809100019091010184309B
S11300D091051CF39923BCF3A90102C0440F551FD9
S11300E08A95E2F748B98091000190910101019746
S11300F0909301018093000187EA91E60197F1F75B
S113010000C000008091000190910101992324F71F
S1090110DACFF894FFCFE2
S9030000FC
